:107800001124C4B714BEC1FD06C0C3FD90D181E4EC
:10781000ADD08C2FD8D285E08093810082E0809318
:10782000C00088E18093C10086E08093C20080E1BF
:107830008093C4008EE070D1399A86E020E33CEF5B
:1078400091E0309385002093840096BBB09BFECFDF
:10785000319AA8958150A9F7C0E0D0E093E0F92EC5
:10786000EE24E39425E0D22E31E1C32E47D18134BA
:1078700071F444D1182F98D2123811F482E005C067
:10788000113811F48AE101C083E070D06CC08234F9
:1078900011F484E103C0853419F485E08DD263C00E
:1078A000853541F42BD1C82F29D1D0E0D82BCC0F6E
:1078B000DD1F58C0863521F484E07ED280E0E5CF1C
:1078C000843609F032C01AD119D1B82E17D1A82E9A
:1078D00000E011E013D1F80181938F01BE12FACFBD
:1078E00063D2F5E4AF1201C0FFCFFE01F7BEE89509
:1078F00007B600FCFDCFFE01A0E0B1E08C9111962F
:107900002C91119790E0922B0C01E7BEE895112481
:1079100032961296BA12F2CFFE01D7BEE89507B69C
:1079200000FCFDCFC7BEE8951EC0843771F4E6D0D9
:10793000E5D0B82EE3D038D28E01F80185918F01C1
:1079400015D0BA94B110F9CF0EC0853739F42CD2C6
:107950008EE10CD085E90AD08FE097CF813511F404
:1079600088E0DAD021D280E101D080CF9091C000B0
:1079700095FFFCCF8093C6000895CF93AB01BC0167
:10798000352F29ECE4EAF4EAA0EA94E8B1EA2150C0
:1079900009F4B1C0F093BC0080E0C091BC00C7FD09
:1079A00005C08F5F8B3FC9F781E30CC08091B900A0
:1079B000887F80930001803139F0883359F3883013
:1079C00019F08DE4D3DF97C0A093BB009093BC0067
:1079D00080E0C091BC00C7FD05C08F5F8B3FC9F739
:1079E00082E376C08091B900887F80930001803265
:1079F00071F2883379F2883109F078C03093BB0096
:107A00009093BC0080E0C091BC00C7FD05C08F5FB3
:107A10008B3FC9F783E35CC08091B900887F809376
:107A200000018832A9F44093BB009093BC0080E031
:107A3000C091BC00C7FD05C08F5F8B3FC9F784E3D1
:107A400047C08091B900887F80930001883221F07F
:107A5000883309F49FCF4AC0E093BC0080E0C09116
:107A6000BC00C7FD05C08F5F8B3FC9F785E330C001
:107A70008091B900887F80930001803129F088339C
:107A800009F488CF883091F5B093BB009093BC0087
:107A900080E0C091BC00C7FD05C08F5F8B3FC9F778
:107AA00086E316C08091B900887F809300018833F7
:107AB00009F470CF8034D1F484E88093BC0080E076
:107AC0009091BC0097FD06C08F5F8B3FC9F787E39D
:107AD0004DDF0CC08091B900887F80930001803514
:107AE00011F0883519F48091BB0001C08FEF94E943
:107AF0009093BC0001C08FEFCF910895319A80918F
:107B0000C00087FFFCCF8091C00084FD01C0A89514
:107B10008091C600319A0895811103C094B7977F70
:107B200094BF98E1909360008093600008959F92C5
:107B3000AF92BF92CF92DF92EF92FF920F931F937B
:107B4000CF93DF9386E412DF80E0E6DF88B18063C5
:107B500088B91092B90088E48093B80084E08093DB
:107B6000BC008AE003DF60E070E0CB0106DF863412
:107B700009F001C161E070E080E090E0FEDE8C344D
:107B800009F0F9C062E070E080E090E0F6DE883550
:107B900009F0F1C066E070E080E090E0EEDE8A334C
:107BA00009F0E9C069E070E080E090E0E6DE8A3349
:107BB00009F0E1C08CE4DADE67E070E080E090E09C
:107BC000DCDEC82F68E070E080E090E0D6DED0E038
:107BD000DC2FCC27C82BC0FDDBC0319AC12CD12CA7
:107BE00000E010E0BB24B39483E0A82E95E0992E2A
:107BF0000C171D0708F030C08AE2B8DEB801665FD6
:107C00007F4F80E090E0B9DEE82EF12CB801655F8F
:107C10007F4F80E090E0B1DEF82AF8010701B7BE9F
:107C2000E89511240E5F1F4FC8018F779927892B84
:107C300019F0C017D107E1F6F601A7BEE89507B61F
:107C400000FCFDCFF60197BEE89507B600FCFDCF1E
:107C5000F0E8CF0ED11CCCCF319881E187BFE895F9
:107C600085E484DE99EC34EA40EA24E8915009F492
:107C70007FC03093BC0080E05091BC0057FD06C02F
:107C80008F5F8B3FC9F781E471DE72C08091B900CC
:107C9000887F80930001803129F0883351F3883048
:107CA00009F066C04093BB002093BC0080E0509177
:107CB000BC0057FD05C08F5F8B3FC9F782E419C038
:107CC0008091B900887F80930001803279F28833F7
:107CD00081F2883109F049C01092BB002093BC00AA
:107CE00080E05091BC0057FD06C08F5F8B3FC9F705
:107CF00083E43CDE3AC08091B900887F8093000124
:107D00008832A9F41092BB002093BC0080E050910F
:107D1000BC0057FD05C08F5F8B3FC9F784E4E9CFF6
:107D20008091B900887F80930001883221F08833E8
:107D300009F49FCF1AC098E02FEF34E82093BB00DE
:107D40003093BC0080E04091BC0047FD05C08F5FD0
:107D50008B3FC9F785E4CDCF8091B900887F8093B0
:107D60000001883211F4915049F784E98093BC00F6
:107D700088E0D2DEFFCF88E5DF91CF911F910F9190
:107D8000FF90EF90DF90CF90BF90AF909F90EECD9F
:107D9000DF91CF911F910F91FF90EF90DF90CF90E7
:107DA000BF90AF909F900895A9DE803219F088E0CF
:107DB000B3DEFFCF84E1DACDCF93C82F9FDEC15071
:107DC000E9F7CF91F1CF282E80E0A6DEEE27FF273E
:027DD000099414
:040000030000780081
:00000001FF
